:02000000FE2FD1
:100F2C00F00070088312031399000C1A08009B2F11
:100F3C000730831203139F003A3092000630900062
:100F4C0090309800F93083160313920020309800EB
:100F5C00CF309900E6308600F301F401F501F6017B
:100F6C008312031391018E018F010C108C1010143D
:100F7C0012157608803AFF0080307F02031DC82FBF
:100F8C007D3075020318DF2F831203130C1CD52F31
:100F9C000C100130F3070318F40A0030F4078C1C12
:100FAC00BF2F8C100130F5070318F60A0030F60736
:100FBC00BF2F83120313101012110E0896276830DE
:100FCC00F200E430F100F10BE92FF20BE92F0000F5
:100FDC00831203130F0896276830F200E430F100F7
:100FEC00F10BF62FF20BF62F000073089627B22F99
:040FFC0083019E2FA0
:02400E000AFFA7
:00000001FF
